{
  "contractName": "CourseMarketplace",
  "abi": [
    {
      "inputs": [],
      "stateMutability": "nonpayable",
      "type": "constructor"
    },
    {
      "inputs": [],
      "name": "CourseHasOwner",
      "type": "error"
    },
    {
      "inputs": [],
      "name": "CourseIsNotCreated",
      "type": "error"
    },
    {
      "inputs": [],
      "name": "InvalidState",
      "type": "error"
    },
    {
      "inputs": [],
      "name": "SenderIsNotCourseOwner",
      "type": "error"
    },
    {
      "inputs": [],
      "name": "owner",
      "outputs": [
        {
          "internalType": "address payable",
          "name": "",
          "type": "address"
        }
      ],
      "stateMutability": "view",
      "type": "function",
      "constant": true
    },
    {
      "inputs": [],
      "name": "paused",
      "outputs": [
        {
          "internalType": "bool",
          "name": "",
          "type": "bool"
        }
      ],
      "stateMutability": "view",
      "type": "function",
      "constant": true
    },
    {
      "inputs": [],
      "name": "total_owned_courses",
      "outputs": [
        {
          "internalType": "uint256",
          "name": "",
          "type": "uint256"
        }
      ],
      "stateMutability": "view",
      "type": "function",
      "constant": true
    },
    {
      "stateMutability": "payable",
      "type": "receive",
      "payable": true
    },
    {
      "inputs": [
        {
          "internalType": "uint256",
          "name": "index",
          "type": "uint256"
        }
      ],
      "name": "get_course_hash_at_index",
      "outputs": [
        {
          "internalType": "bytes32",
          "name": "",
          "type": "bytes32"
        }
      ],
      "stateMutability": "view",
      "type": "function",
      "constant": true
    },
    {
      "inputs": [
        {
          "internalType": "bytes32",
          "name": "course_hash",
          "type": "bytes32"
        }
      ],
      "name": "get_course_by_hash",
      "outputs": [
        {
          "components": [
            {
              "internalType": "uint256",
              "name": "id",
              "type": "uint256"
            },
            {
              "internalType": "uint256",
              "name": "price",
              "type": "uint256"
            },
            {
              "internalType": "bytes32",
              "name": "proof",
              "type": "bytes32"
            },
            {
              "internalType": "address",
              "name": "owner",
              "type": "address"
            },
            {
              "internalType": "enum CourseMarketplace.State",
              "name": "state",
              "type": "uint8"
            }
          ],
          "internalType": "struct CourseMarketplace.Course",
          "name": "",
          "type": "tuple"
        }
      ],
      "stateMutability": "view",
      "type": "function",
      "constant": true
    },
    {
      "inputs": [
        {
          "internalType": "bytes16",
          "name": "course_id",
          "type": "bytes16"
        },
        {
          "internalType": "bytes32",
          "name": "proof",
          "type": "bytes32"
        }
      ],
      "name": "purchase",
      "outputs": [],
      "stateMutability": "payable",
      "type": "function",
      "payable": true
    },
    {
      "inputs": [
        {
          "internalType": "bytes32",
          "name": "course_hash",
          "type": "bytes32"
        }
      ],
      "name": "repurchase_course",
      "outputs": [],
      "stateMutability": "payable",
      "type": "function",
      "payable": true
    },
    {
      "inputs": [
        {
          "internalType": "bytes32",
          "name": "course_hash",
          "type": "bytes32"
        }
      ],
      "name": "activate_course",
      "outputs": [],
      "stateMutability": "nonpayable",
      "type": "function"
    },
    {
      "inputs": [
        {
          "internalType": "bytes32",
          "name": "course_hash",
          "type": "bytes32"
        }
      ],
      "name": "deactivate_course",
      "outputs": [],
      "stateMutability": "nonpayable",
      "type": "function"
    },
    {
      "inputs": [],
      "name": "pause_contract",
      "outputs": [],
      "stateMutability": "nonpayable",
      "type": "function"
    },
    {
      "inputs": [],
      "name": "unpause_contract",
      "outputs": [],
      "stateMutability": "nonpayable",
      "type": "function"
    },
    {
      "inputs": [
        {
          "internalType": "address",
          "name": "new_owner",
          "type": "address"
        }
      ],
      "name": "transfer_ownership",
      "outputs": [],
      "stateMutability": "nonpayable",
      "type": "function"
    },
    {
      "inputs": [
        {
          "internalType": "uint256",
          "name": "amount",
          "type": "uint256"
        }
      ],
      "name": "withdraw",
      "outputs": [],
      "stateMutability": "nonpayable",
      "type": "function"
    },
    {
      "inputs": [],
      "name": "emergency_withdraw",
      "outputs": [],
      "stateMutability": "nonpayable",
      "type": "function"
    },
    {
      "inputs": [],
      "name": "self_destruct",
      "outputs": [],
      "stateMutability": "nonpayable",
      "type": "function"
    }
  ],
  "bytecode": "0x608060405234801561001057600080fd5b5033600360006101000a81548173ffffffffffffffffffffffffffffffffffffffff021916908373ffffffffffffffffffffffffffffffffffffffff1602179055506119e3806100616000396000f3fe6080604052600436106100ec5760003560e01c8063a23e9c141161008a578063d11f739611610059578063d11f739614610283578063e35f7267146102ae578063e85c706e146102eb578063f0350c0414610302576100f3565b8063a23e9c14146101dd578063a2d1143b1461021a578063ac029aa414610243578063cbc1cfd21461026c576100f3565b80635ce3dec1116100c65780635ce3dec1146101635780638223f08f1461017a5780638da5cb5b146101965780639f1fb12d146101c1576100f3565b80632e1a7d4d146100f85780634ef5e38a146101215780635c975abb14610138576100f3565b366100f357005b600080fd5b34801561010457600080fd5b5061011f600480360381019061011a9190611366565b61032b565b005b34801561012d57600080fd5b506101366103f1565b005b34801561014457600080fd5b5061014d6104b8565b60405161015a91906113ae565b60405180910390f35b34801561016f57600080fd5b506101786104cb565b005b610194600480360381019061018f9190611457565b6105af565b005b3480156101a257600080fd5b506101ab6107f9565b6040516101b891906114d8565b60405180910390f35b6101db60048036038101906101d691906114f3565b61081f565b005b3480156101e957600080fd5b5061020460048036038101906101ff9190611366565b6109ab565b604051610211919061152f565b60405180910390f35b34801561022657600080fd5b50610241600480360381019061023c91906114f3565b6109c8565b005b34801561024f57600080fd5b5061026a600480360381019061026591906114f3565b610bc3565b005b34801561027857600080fd5b50610281610e9d565b005b34801561028f57600080fd5b50610298610fb1565b6040516102a59190611559565b60405180910390f35b3480156102ba57600080fd5b506102d560048036038101906102d091906114f3565b610fb7565b6040516102e29190611692565b60405180910390f35b3480156102f757600080fd5b50610300611092565b005b34801561030e57600080fd5b50610329600480360381019061032491906116d9565b611158565b005b600360009054906101000a900473ffffffffffffffffffffffffffffffffffffffff1673ffffffffffffffffffffffffffffffffffffffff163373ffffffffffffffffffffffffffffffffffffffff161461038557600080fd5b600360009054906101000a900473ffffffffffffffffffffffffffffffffffffffff1673ffffffffffffffffffffffffffffffffffffffff166108fc829081150290604051600060405180830381858888f193505050501580156103ed573d6000803e3d6000fd5b5050565b600360009054906101000a900473ffffffffffffffffffffffffffffffffffffffff1673ffffffffffffffffffffffffffffffffffffffff163373ffffffffffffffffffffffffffffffffffffffff161461044b57600080fd5b600360149054906101000a900460ff161561049b576040517f08c379a000000000000000000000000000000000000000000000000000000000815260040161049290611763565b60405180910390fd5b6001600360146101000a81548160ff021916908315150217905550565b600360149054906101000a900460ff1681565b600360009054906101000a900473ffffffffffffffffffffffffffffffffffffffff1673ffffffffffffffffffffffffffffffffffffffff163373ffffffffffffffffffffffffffffffffffffffff161461052557600080fd5b600360149054906101000a900460ff16610574576040517f08c379a000000000000000000000000000000000000000000000000000000000815260040161056b906117cf565b60405180910390fd5b600360009054906101000a900473ffffffffffffffffffffffffffffffffffffffff1673ffffffffffffffffffffffffffffffffffffffff16ff5b600360149054906101000a900460ff16156105ff576040517f08c379a00000000000000000000000000000000000000000000000000000000081526004016105f690611763565b60405180910390fd5b60008233604051602001610614929190611858565b6040516020818303038152906040528051906020012090503373ffffffffffffffffffffffffffffffffffffffff1660008083815260200190815260200160002060030160009054906101000a900473ffffffffffffffffffffffffffffffffffffffff1673ffffffffffffffffffffffffffffffffffffffff16036106c6576040517fb0fc2d9700000000000000000000000000000000000000000000000000000000815260040160405180910390fd5b6000600260008154809291906106db906118b3565b9190505590508160016000838152602001908152602001600020819055506040518060a001604052808281526020013481526020018481526020013373ffffffffffffffffffffffffffffffffffffffff16815260200160006002811115610746576107456115b3565b5b81525060008084815260200190815260200160002060008201518160000155602082015181600101556040820151816002015560608201518160030160006101000a81548173ffffffffffffffffffffffffffffffffffffffff021916908373ffffffffffffffffffffffffffffffffffffffff16021790555060808201518160030160146101000a81548160ff021916908360028111156107eb576107ea6115b3565b5b021790555090505050505050565b600360009054906101000a900473ffffffffffffffffffffffffffffffffffffffff1681565b600360149054906101000a900460ff161561086f576040517f08c379a000000000000000000000000000000000000000000000000000000000815260040161086690611763565b60405180910390fd5b610878816111f6565b6108ae576040517f4db0c48300000000000000000000000000000000000000000000000000000000815260040160405180910390fd5b6108b781611264565b6108ed576040517fcce31cc400000000000000000000000000000000000000000000000000000000815260040160405180910390fd5b60008060008381526020019081526020016000209050600280811115610916576109156115b3565b5b8160030160149054906101000a900460ff16600281111561093a576109396115b3565b5b14610971576040517fbaf3f0f700000000000000000000000000000000000000000000000000000000815260040160405180910390fd5b60008160030160146101000a81548160ff02191690836002811115610999576109986115b3565b5b02179055503481600101819055505050565b600060016000838152602001908152602001600020549050919050565b600360009054906101000a900473ffffffffffffffffffffffffffffffffffffffff1673ffffffffffffffffffffffffffffffffffffffff163373ffffffffffffffffffffffffffffffffffffffff1614610a2257600080fd5b600360149054906101000a900460ff1615610a72576040517f08c379a0000000000000000000000000000000000000000000000000000000008152600401610a6990611763565b60405180910390fd5b600073ffffffffffffffffffffffffffffffffffffffff1660008083815260200190815260200160002060030160009054906101000a900473ffffffffffffffffffffffffffffffffffffffff1673ffffffffffffffffffffffffffffffffffffffff1603610b0d576040517f4db0c48300000000000000000000000000000000000000000000000000000000815260040160405180910390fd5b6000806000838152602001908152602001600020905060006002811115610b3757610b366115b3565b5b8160030160149054906101000a900460ff166002811115610b5b57610b5a6115b3565b5b14610b92576040517fbaf3f0f700000000000000000000000000000000000000000000000000000000815260040160405180910390fd5b60018160030160146101000a81548160ff02191690836002811115610bba57610bb96115b3565b5b02179055505050565b600360009054906101000a900473ffffffffffffffffffffffffffffffffffffffff1673ffffffffffffffffffffffffffffffffffffffff163373ffffffffffffffffffffffffffffffffffffffff1614610c1d57600080fd5b600360149054906101000a900460ff1615610c6d576040517f08c379a0000000000000000000000000000000000000000000000000000000008152600401610c6490611763565b60405180910390fd5b600073ffffffffffffffffffffffffffffffffffffffff1660008083815260200190815260200160002060030160009054906101000a900473ffffffffffffffffffffffffffffffffffffffff1673ffffffffffffffffffffffffffffffffffffffff1603610d08576040517f4db0c48300000000000000000000000000000000000000000000000000000000815260040160405180910390fd5b6000806000838152602001908152602001600020905060006002811115610d3257610d316115b3565b5b8160030160149054906101000a900460ff166002811115610d5657610d556115b3565b5b14610d8d576040517fbaf3f0f700000000000000000000000000000000000000000000000000000000815260040160405180910390fd5b60008160030160009054906101000a900473ffffffffffffffffffffffffffffffffffffffff1673ffffffffffffffffffffffffffffffffffffffff168260010154604051610ddb9061192c565b60006040518083038185875af1925050503d8060008114610e18576040519150601f19603f3d011682016040523d82523d6000602084013e610e1d565b606091505b5050905080610e61576040517f08c379a0000000000000000000000000000000000000000000000000000000008152600401610e589061198d565b60405180910390fd5b60028260030160146101000a81548160ff02191690836002811115610e8957610e886115b3565b5b021790555060008260010181905550505050565b600360009054906101000a900473ffffffffffffffffffffffffffffffffffffffff1673ffffffffffffffffffffffffffffffffffffffff163373ffffffffffffffffffffffffffffffffffffffff1614610ef757600080fd5b600360149054906101000a900460ff16610f46576040517f08c379a0000000000000000000000000000000000000000000000000000000008152600401610f3d906117cf565b60405180910390fd5b600360009054906101000a900473ffffffffffffffffffffffffffffffffffffffff1673ffffffffffffffffffffffffffffffffffffffff166108fc479081150290604051600060405180830381858888f19350505050158015610fae573d6000803e3d6000fd5b50565b60025481565b610fbf6112d1565b6000808381526020019081526020016000206040518060a00160405290816000820154815260200160018201548152602001600282015481526020016003820160009054906101000a900473ffffffffffffffffffffffffffffffffffffffff1673ffffffffffffffffffffffffffffffffffffffff1673ffffffffffffffffffffffffffffffffffffffff1681526020016003820160149054906101000a900460ff166002811115611075576110746115b3565b5b6002811115611087576110866115b3565b5b815250509050919050565b600360009054906101000a900473ffffffffffffffffffffffffffffffffffffffff1673ffffffffffffffffffffffffffffffffffffffff163373ffffffffffffffffffffffffffffffffffffffff16146110ec57600080fd5b600360149054906101000a900460ff1661113b576040517f08c379a0000000000000000000000000000000000000000000000000000000008152600401611132906117cf565b60405180910390fd5b6000600360146101000a81548160ff021916908315150217905550565b600360009054906101000a900473ffffffffffffffffffffffffffffffffffffffff1673ffffffffffffffffffffffffffffffffffffffff163373ffffffffffffffffffffffffffffffffffffffff16146111b257600080fd5b80600360006101000a81548173ffffffffffffffffffffffffffffffffffffffff021916908373ffffffffffffffffffffffffffffffffffffffff16021790555050565b60008073ffffffffffffffffffffffffffffffffffffffff1660008084815260200190815260200160002060030160009054906101000a900473ffffffffffffffffffffffffffffffffffffffff1673ffffffffffffffffffffffffffffffffffffffff1614159050919050565b60003373ffffffffffffffffffffffffffffffffffffffff1660008084815260200190815260200160002060030160009054906101000a900473ffffffffffffffffffffffffffffffffffffffff1673ffffffffffffffffffffffffffffffffffffffff16149050919050565b6040518060a00160405280600081526020016000815260200160008019168152602001600073ffffffffffffffffffffffffffffffffffffffff16815260200160006002811115611325576113246115b3565b5b81525090565b600080fd5b6000819050919050565b61134381611330565b811461134e57600080fd5b50565b6000813590506113608161133a565b92915050565b60006020828403121561137c5761137b61132b565b5b600061138a84828501611351565b91505092915050565b60008115159050919050565b6113a881611393565b82525050565b60006020820190506113c3600083018461139f565b92915050565b60007fffffffffffffffffffffffffffffffff0000000000000000000000000000000082169050919050565b6113fe816113c9565b811461140957600080fd5b50565b60008135905061141b816113f5565b92915050565b6000819050919050565b61143481611421565b811461143f57600080fd5b50565b6000813590506114518161142b565b92915050565b6000806040838503121561146e5761146d61132b565b5b600061147c8582860161140c565b925050602061148d85828601611442565b9150509250929050565b600073ffffffffffffffffffffffffffffffffffffffff82169050919050565b60006114c282611497565b9050919050565b6114d2816114b7565b82525050565b60006020820190506114ed60008301846114c9565b92915050565b6000602082840312156115095761150861132b565b5b600061151784828501611442565b91505092915050565b61152981611421565b82525050565b60006020820190506115446000830184611520565b92915050565b61155381611330565b82525050565b600060208201905061156e600083018461154a565b92915050565b61157d81611330565b82525050565b61158c81611421565b82525050565b600061159d82611497565b9050919050565b6115ad81611592565b82525050565b7f4e487b7100000000000000000000000000000000000000000000000000000000600052602160045260246000fd5b600381106115f3576115f26115b3565b5b50565b6000819050611604826115e2565b919050565b6000611614826115f6565b9050919050565b61162481611609565b82525050565b60a0820160008201516116406000850182611574565b5060208201516116536020850182611574565b5060408201516116666040850182611583565b50606082015161167960608501826115a4565b50608082015161168c608085018261161b565b50505050565b600060a0820190506116a7600083018461162a565b92915050565b6116b681611592565b81146116c157600080fd5b50565b6000813590506116d3816116ad565b92915050565b6000602082840312156116ef576116ee61132b565b5b60006116fd848285016116c4565b91505092915050565b600082825260208201905092915050565b7f5061757361626c653a2070617573656400000000000000000000000000000000600082015250565b600061174d601083611706565b915061175882611717565b602082019050919050565b6000602082019050818103600083015261177c81611740565b9050919050565b7f5061757361626c653a206e6f7420706175736564000000000000000000000000600082015250565b60006117b9601483611706565b91506117c482611783565b602082019050919050565b600060208201905081810360008301526117e8816117ac565b9050919050565b6000819050919050565b61180a611805826113c9565b6117ef565b82525050565b60008160601b9050919050565b600061182882611810565b9050919050565b600061183a8261181d565b9050919050565b61185261184d82611592565b61182f565b82525050565b600061186482856117f9565b6010820191506118748284611841565b6014820191508190509392505050565b7f4e487b7100000000000000000000000000000000000000000000000000000000600052601160045260246000fd5b60006118be82611330565b91507fffffffffffffffffffffffffffffffffffffffffffffffffffffffffffffffff82036118f0576118ef611884565b5b600182019050919050565b600081905092915050565b50565b60006119166000836118fb565b915061192182611906565b600082019050919050565b600061193782611909565b9150819050919050565b7f436f756c64206e6f74207472616e736665722066756e64730000000000000000600082015250565b6000611977601883611706565b915061198282611941565b602082019050919050565b600060208201905081810360008301526119a68161196a565b905091905056fea26469706673582212202d069eef2a49782f829084386947ab136a4313a5c2fd38186d75e947f4c9c3fa64736f6c634300080d0033",
  "immutableReferences": {},
  "source": "// SPDX-License-Identifier: MIT\r\npragma solidity >=0.4.22 <0.9.0;\r\n\r\ncontract CourseMarketplace {\r\n  enum State {\r\n    Purchased,\r\n    Activated,\r\n    Deactivaed\r\n  }\r\n\r\n  struct Course {\r\n    uint id;\r\n    uint price;\r\n    bytes32 proof;\r\n    address owner;\r\n    State state;\r\n  }\r\n\r\n  // mapping of course hash to course data\r\n  mapping(bytes32 => Course) private owned_courses;\r\n\r\n  // course id to course hash\r\n  mapping(uint => bytes32) private owned_courses_hash;\r\n\r\n  uint public total_owned_courses;\r\n  address payable public owner;\r\n\r\n  bool public paused;\r\n\r\n  constructor() {\r\n    owner = payable(msg.sender);\r\n  }\r\n  \r\n  /// Course has already an owner\r\n  error CourseHasOwner();\r\n\r\n  /// Sender Is Not Course Owner\r\n  error SenderIsNotCourseOwner();\r\n\r\n  /// Course should be created before used\r\n  error CourseIsNotCreated();\r\n\r\n  /// Course state should purchased before it can be activated\r\n  error InvalidState();\r\n\r\n  modifier only_owner() {\r\n    require (msg.sender == owner);\r\n    _;\r\n  }\r\n\r\n  function get_course_hash_at_index(uint index)\r\n  external view\r\n  returns (bytes32) {\r\n    return owned_courses_hash[index];\r\n  }\r\n\r\n  function get_course_by_hash(bytes32 course_hash)\r\n  external view\r\n  returns (Course memory) {\r\n    return owned_courses[course_hash];\r\n  }\r\n\r\n  function purchase(bytes16 course_id, bytes32 proof) \r\n  external payable \r\n  when_not_paused {\r\n    // course id - 10\r\n    // 10 ascii to hex - 31 30\r\n    // 16 bytes (1 byte 2 chars)  - 0x00000000000000000000000000003130\r\n    // 32 bytes proof - 0x0000000000000000000000000031300000000000000000000000000000003130\r\n    // msg.sender - 0x5B38Da6a701c568545dCfcB03FcB875f56beddC4\r\n    // both - 000000000000000000000000000031305B38Da6a701c568545dCfcB03FcB875f56beddC4\r\n    // keccak256 - c4eaa3558504e2baa2669001b43f359b8418b44a4477ff417b4b007d7cc86e37\r\n    bytes32 course_hash = keccak256(abi.encodePacked(course_id, msg.sender));\r\n\r\n    if (owned_courses[course_hash].owner == msg.sender) {\r\n      revert CourseHasOwner();     \r\n    }\r\n\r\n    uint id = total_owned_courses++;\r\n    owned_courses_hash[id] = course_hash;\r\n\r\n    // 0 => 0xc4eaa3558504e2baa2669001b43f359b8418b44a4477ff417b4b007d7cc86e37\r\n    owned_courses[course_hash] = Course({\r\n      id: id,\r\n      price: msg.value,\r\n      proof: proof,\r\n      owner: msg.sender,\r\n      state: State.Purchased\r\n    });\r\n  }\r\n\r\n  function repurchase_course(bytes32 course_hash)\r\n  external payable \r\n  when_not_paused {\r\n\r\n    if (!is_course_created(course_hash)) {\r\n      revert CourseIsNotCreated();\r\n    } \r\n    \r\n    if (!has_courses_ownership(course_hash)) {\r\n      revert SenderIsNotCourseOwner();\r\n    }\r\n\r\n    Course storage course = owned_courses[course_hash];\r\n\r\n    if (course.state != State.Deactivaed) {\r\n      revert InvalidState();\r\n    }\r\n\r\n    course.state = State.Purchased;\r\n    course.price = msg.value;\r\n  }\r\n\r\n  function activate_course(bytes32 course_hash)\r\n  external\r\n  only_owner when_not_paused\r\n  {\r\n\r\n    if (owned_courses[course_hash].owner == address(0x0)) {\r\n      revert CourseIsNotCreated();\r\n    }\r\n    \r\n    Course storage course = owned_courses[course_hash];\r\n\r\n    if (course.state != State.Purchased) {\r\n      revert InvalidState();\r\n    }\r\n\r\n    course.state = State.Activated;\r\n  }\r\n\r\n  function deactivate_course(bytes32 course_hash) \r\n  external\r\n  only_owner when_not_paused\r\n  {\r\n\r\n    if (owned_courses[course_hash].owner == address(0x0)) {\r\n      revert CourseIsNotCreated();\r\n    }\r\n    \r\n    Course storage course = owned_courses[course_hash];\r\n\r\n    if (course.state != State.Purchased) {\r\n      revert InvalidState();\r\n    }\r\n\r\n    (bool success, ) = course.owner.call{value: course.price}(\"\");\r\n    require(success, \"Could not transfer funds\");\r\n    \r\n    course.state = State.Deactivaed;\r\n    course.price = 0;\r\n  }\r\n  \r\n  function pause_contract()\r\n  external\r\n  only_owner when_not_paused {\r\n    paused = true;\r\n  }\r\n\r\n  function unpause_contract()\r\n  external\r\n  only_owner when_paused {\r\n    paused = false;\r\n  }\r\n\r\n  modifier when_not_paused() {\r\n    require(!paused, \"Pausable: paused\");\r\n    _;\r\n  }\r\n  \r\n  modifier when_paused() {\r\n    require(paused, \"Pausable: not paused\");\r\n    _;\r\n  }\r\n\r\n  function is_course_created(bytes32 couse_hash) \r\n  private view\r\n  returns (bool) {\r\n    return owned_courses[couse_hash].owner != address(0x0);\r\n  }\r\n\r\n  function has_courses_ownership(bytes32 couse_hash)\r\n  private view\r\n  returns (bool) {\r\n    return owned_courses[couse_hash].owner == msg.sender;\r\n  }\r\n\r\n  function transfer_ownership(address new_owner)\r\n  only_owner\r\n  external {\r\n    owner = payable(new_owner);\r\n  }\r\n\r\n  receive()\r\n  external payable {}\r\n\r\n  function withdraw(uint amount)\r\n  external\r\n  only_owner {\r\n    owner.transfer(amount);\r\n  }\r\n\r\n  function emergency_withdraw()\r\n  external\r\n  only_owner when_paused {\r\n    owner.transfer(address(this).balance);\r\n  }\r\n\r\n  function self_destruct() \r\n  external\r\n  only_owner when_paused {\r\n    selfdestruct(owner);\r\n  }\r\n}",
  "sourcePath": "D:\\dev\\eth\\market\\contracts\\CourseMarketplace.sol",
  "compiler": {
    "name": "solc",
    "version": "0.8.13+commit.abaa5c0e.Emscripten.clang"
  },
  "schemaVersion": "3.4.7",
  "updatedAt": "2022-06-05T11:32:45.917Z",
  "networkType": "ethereum",
  "devdoc": {
    "kind": "dev",
    "methods": {},
    "version": 1
  },
  "userdoc": {
    "errors": {
      "CourseHasOwner()": [
        {
          "notice": "Course has already an owner"
        }
      ],
      "CourseIsNotCreated()": [
        {
          "notice": "Course should be created before used"
        }
      ],
      "InvalidState()": [
        {
          "notice": "Course state should purchased before it can be activated"
        }
      ],
      "SenderIsNotCourseOwner()": [
        {
          "notice": "Sender Is Not Course Owner"
        }
      ]
    },
    "kind": "user",
    "methods": {},
    "version": 1
  }
}